{
  "contractName": "Testament",
  "abi": [
    {
      "constant": false,
      "inputs": [],
      "name": "renounceOwnership",
      "outputs": [],
      "payable": false,
      "stateMutability": "nonpayable",
      "type": "function",
      "signature": "0x715018a6"
    },
    {
      "constant": true,
      "inputs": [],
      "name": "owner",
      "outputs": [
        {
          "name": "",
          "type": "address"
        }
      ],
      "payable": false,
      "stateMutability": "view",
      "type": "function",
      "signature": "0x8da5cb5b"
    },
    {
      "constant": true,
      "inputs": [],
      "name": "isOwner",
      "outputs": [
        {
          "name": "",
          "type": "bool"
        }
      ],
      "payable": false,
      "stateMutability": "view",
      "type": "function",
      "signature": "0x8f32d59b"
    },
    {
      "constant": false,
      "inputs": [
        {
          "name": "newOwner",
          "type": "address"
        }
      ],
      "name": "transferOwnership",
      "outputs": [],
      "payable": false,
      "stateMutability": "nonpayable",
      "type": "function",
      "signature": "0xf2fde38b"
    },
    {
      "inputs": [],
      "payable": false,
      "stateMutability": "nonpayable",
      "type": "constructor",
      "signature": "constructor"
    },
    {
      "anonymous": false,
      "inputs": [
        {
          "indexed": true,
          "name": "previousOwner",
          "type": "address"
        },
        {
          "indexed": true,
          "name": "newOwner",
          "type": "address"
        }
      ],
      "name": "OwnershipTransferred",
      "type": "event",
      "signature": "0x8be0079c531659141344cd1fd0a4f28419497f9722a3daafe3b4186f6b6457e0"
    },
    {
      "constant": false,
      "inputs": [
        {
          "name": "_ipfsAddress",
          "type": "string"
        },
        {
          "name": "_hashValue",
          "type": "string"
        }
      ],
      "name": "createDocument",
      "outputs": [],
      "payable": true,
      "stateMutability": "payable",
      "type": "function",
      "signature": "0x93ebc4c8"
    },
    {
      "constant": true,
      "inputs": [
        {
          "name": "_creatorAddress",
          "type": "address"
        }
      ],
      "name": "getDocument",
      "outputs": [
        {
          "name": "ipfsAddress",
          "type": "string"
        },
        {
          "name": "hashValue",
          "type": "string"
        }
      ],
      "payable": false,
      "stateMutability": "view",
      "type": "function",
      "signature": "0x72e2a59e"
    }
  ],
  "bytecode": "0x608060405234801561001057600080fd5b50336000806101000a81548173ffffffffffffffffffffffffffffffffffffffff021916908373ffffffffffffffffffffffffffffffffffffffff1602179055506000809054906101000a900473ffffffffffffffffffffffffffffffffffffffff1673ffffffffffffffffffffffffffffffffffffffff16600073ffffffffffffffffffffffffffffffffffffffff167f8be0079c531659141344cd1fd0a4f28419497f9722a3daafe3b4186f6b6457e060405160405180910390a3610a5a806100dc6000396000f300608060405260043610610078576000357c0100000000000000000000000000000000000000000000000000000000900463ffffffff168063715018a61461007d57806372e2a59e146100945780638da5cb5b146101bc5780638f32d59b1461021357806393ebc4c814610242578063f2fde38b146102e4575b600080fd5b34801561008957600080fd5b50610092610327565b005b3480156100a057600080fd5b506100d5600480360381019080803573ffffffffffffffffffffffffffffffffffffffff1690602001909291905050506103f9565b604051808060200180602001838103835285818151815260200191508051906020019080838360005b838110156101195780820151818401526020810190506100fe565b50505050905090810190601f1680156101465780820380516001836020036101000a031916815260200191505b50838103825284818151815260200191508051906020019080838360005b8381101561017f578082015181840152602081019050610164565b50505050905090810190601f1680156101ac5780820380516001836020036101000a031916815260200191505b5094505050505060405180910390f35b3480156101c857600080fd5b506101d161066a565b604051808273ffffffffffffffffffffffffffffffffffffffff1673ffffffffffffffffffffffffffffffffffffffff16815260200191505060405180910390f35b34801561021f57600080fd5b50610228610693565b604051808215151515815260200191505060405180910390f35b6102e2600480360381019080803590602001908201803590602001908080601f0160208091040260200160405190810160405280939291908181526020018383808284378201915050505050509192919290803590602001908201803590602001908080601f01602080910402602001604051908101604052809392919081815260200183838082843782019150505050505091929192905050506106ea565b005b3480156102f057600080fd5b50610325600480360381019080803573ffffffffffffffffffffffffffffffffffffffff169060200190929190505050610856565b005b61032f610693565b151561033a57600080fd5b600073ffffffffffffffffffffffffffffffffffffffff166000809054906101000a900473ffffffffffffffffffffffffffffffffffffffff1673ffffffffffffffffffffffffffffffffffffffff167f8be0079c531659141344cd1fd0a4f28419497f9722a3daafe3b4186f6b6457e060405160405180910390a360008060006101000a81548173ffffffffffffffffffffffffffffffffffffffff021916908373ffffffffffffffffffffffffffffffffffffffff160217905550565b606080600080600061040961096f565b600280549050935060009250600091505b838261ffff1610156104ad5760028261ffff1681548110151561043957fe5b9060005260206000200160009054906101000a900473ffffffffffffffffffffffffffffffffffffffff1673ffffffffffffffffffffffffffffffffffffffff168773ffffffffffffffffffffffffffffffffffffffff1614156104a05782806001019350505b818060010192505061041a565b600083141515156104bd57600080fd5b600160008873ffffffffffffffffffffffffffffffffffffffff1673ffffffffffffffffffffffffffffffffffffffff168152602001908152602001600020604080519081016040529081600082018054600181600116156101000203166002900480601f0160208091040260200160405190810160405280929190818152602001828054600181600116156101000203166002900480156105a05780601f10610575576101008083540402835291602001916105a0565b820191906000526020600020905b81548152906001019060200180831161058357829003601f168201915b50505050508152602001600182018054600181600116156101000203166002900480601f0160208091040260200160405190810160405280929190818152602001828054600181600116156101000203166002900480156106425780601f1061061757610100808354040283529160200191610642565b820191906000526020600020905b81548152906001019060200180831161062557829003601f168201915b5050505050815250509050806000015181602001518191508090509550955050505050915091565b60008060009054906101000a900473ffffffffffffffffffffffffffffffffffffffff16905090565b60008060009054906101000a900473ffffffffffffffffffffffffffffffffffffffff1673ffffffffffffffffffffffffffffffffffffffff163373ffffffffffffffffffffffffffffffffffffffff1614905090565b60006106f461096f565b60006001341015151561070657600080fd5b33925084826000018190525083826020018190525081600160008573ffffffffffffffffffffffffffffffffffffffff1673ffffffffffffffffffffffffffffffffffffffff1681526020019081526020016000206000820151816000019080519060200190610777929190610989565b506020820151816001019080519060200190610794929190610989565b5090505060028390806001815401808255809150509060018203906000526020600020016000909192909190916101000a81548173ffffffffffffffffffffffffffffffffffffffff021916908373ffffffffffffffffffffffffffffffffffffffff1602179055505034905061080961066a565b73ffffffffffffffffffffffffffffffffffffffff166108fc829081150290604051600060405180830381858888f1935050505015801561084e573d6000803e3d6000fd5b505050505050565b61085e610693565b151561086957600080fd5b61087281610875565b50565b600073ffffffffffffffffffffffffffffffffffffffff168173ffffffffffffffffffffffffffffffffffffffff16141515156108b157600080fd5b8073ffffffffffffffffffffffffffffffffffffffff166000809054906101000a900473ffffffffffffffffffffffffffffffffffffffff1673ffffffffffffffffffffffffffffffffffffffff167f8be0079c531659141344cd1fd0a4f28419497f9722a3daafe3b4186f6b6457e060405160405180910390a3806000806101000a81548173ffffffffffffffffffffffffffffffffffffffff021916908373ffffffffffffffffffffffffffffffffffffffff16021790555050565b604080519081016040528060608152602001606081525090565b828054600181600116156101000203166002900490600052602060002090601f016020900481019282601f106109ca57805160ff19168380011785556109f8565b828001600101855582156109f8579182015b828111156109f75782518255916020019190600101906109dc565b5b509050610a059190610a09565b5090565b610a2b91905b80821115610a27576000816000905550600101610a0f565b5090565b905600a165627a7a72305820112e821a8d9ea327d35c1f577eccab0a99996cb677c7621c9cc8956c6b5b36fe0029",
  "source": "pragma solidity ^0.4.25;\nimport \"./Ownable.sol\";\n\ncontract Testament is Ownable{\n    \n    struct Document{\n        // store document on ipfs. the IPFS store doc and return a hash address to get file from the network\n        // for the secure reason, we must encrypt the IPFS address, reccomend use hashvalue of document to encrypt\n        string ipfsAddress;\n        \n        //hash value \n        string hashValue;\n    }\n    \n    // Map document creator to document\n    mapping(address=>Document) documents;\n    // list of creators\n    address[] creators;\n\n/* constructor */\n\n    constructor() public{\n        //contractOwner = msg.sender;\n    }\n\n/* functions */\n\n    // Create DieWill\n    function createDocument (string memory _ipfsAddress, string memory _hashValue) public payable{\n        require(msg.value >= 1);\n        address sender = msg.sender;\n        Document memory doc;\n        doc.ipfsAddress = _ipfsAddress;\n        doc.hashValue = _hashValue;\n        documents[sender] = doc;\n        \n        // push to creators array\n        creators.push(sender);\n        \n        //address(this).balance += msg.value;\n        uint value = msg.value;\n        owner().transfer(value);\n    }\n    \n    // get diewill \n    function getDocument(address _creatorAddress) public view returns (string memory ipfsAddress, string memory hashValue){\n        //check if sender ar creator document\n        uint arrlen = creators.length;\n        int counter =0;\n        for(uint16 i=0; i<arrlen; i++){\n            if(_creatorAddress == creators[i])\n                counter++;\n        }\n        \n        require (counter != 0);\n        Document memory doc = documents[_creatorAddress];\n        return (doc.ipfsAddress, doc.hashValue);\n    }\n    \n}",
  "sourcePath": "/home/huuhien/HACKATHON/Hackathon-source/hackathon-dapp-source/contracts/Testament.sol",
  "compiler": {
    "name": "solc",
    "version": "0.4.25+commit.59dbf8f1.Emscripten.clang"
  },
  "schemaVersion": "3.0.6",
  "updatedAt": "2019-04-23T05:45:57.078Z",
  "devdoc": {
    "methods": {
      "isOwner()": {
        "return": "true if `msg.sender` is the owner of the contract."
      },
      "owner()": {
        "return": "the address of the owner."
      },
      "renounceOwnership()": {
        "details": "Allows the current owner to relinquish control of the contract. It will not be possible to call the functions with the `onlyOwner` modifier anymore."
      },
      "transferOwnership(address)": {
        "details": "Allows the current owner to transfer control of the contract to a newOwner.",
        "params": {
          "newOwner": "The address to transfer ownership to."
        }
      }
    }
  },
  "userdoc": {
    "methods": {
      "renounceOwnership()": {
        "notice": "Renouncing ownership will leave the contract without an owner, thereby removing any functionality that is only available to the owner."
      }
    }
  }
}